:02000000BC2B17
:10000800FF00030E83010317AB000A08AA008A0148
:100018008B1C0F288B100B1C2C28861E18280130CF
:100028000313B7000030B8000313061E1F28013061
:10003800ED000030EE00861F25280130EB0000306F
:10004800EC00061F2B280130E1000030E2000B1005
:1000580003172A088A002B0E8300FF0E7F0E090063
:10006800103083120313FD00FD0B38280000080030
:04007800000008007C
:10007C00083083120313FC002330FD00FD0B4428D1
:06008C00FC0B44280800F3
:08009200FA1FF2130030080010
:10009A0083120317B31B542803138811562803131A
:1000AA0088150317331B5C28031308115E280313F2
:1000BA0008150317B31A6428031388106628031354
:1000CA0088140317331A6C28031308106E280313B5
:1000DA0008146F18722808167328081288163C200C
:1000EA0088120317B3197C28031388117E28031377
:1000FA008815031733198428031308118628031354
:10010A0008150317B3188C28031388108E280313B5
:10011A008814031733189428031308109628031316
:10012A0008146F189A2808169B28081288163C206B
:0E013A0088126F1CA2283E20A3283420080043
:0E014800F201F101F001F801F30100300800AE
:100156007B15FB1FB5280130F300F201F101F00118
:08016600FA0DF20CFF30080055
:10016E00831203136F1003173208B3004D206F1460
:02017E00080077
:100180007B14FB1FCB28F201FA1FFF30F200F100B5
:0A019000F000FA0DF20CFF30080039
:10019A00FB14FB1FD728FF30F300F200F100F00038
:0801AA00FA0DF20CFF30080011
:0E01B2008312031725088A0024088200080023
:0601C000FB15FF300800F2
:1001C600A0017208031DF8287108F2007008F100FA
:1001D600F001A0157208031DF8287108F200F1015C
:1001E600A01120167208031906292008F302031D20
:1001F600031C0A290310F21B0E29F00DF10DF20D56
:10020600F30BFE280A290130FC00A4201129023034
:0E021600FC00AB2011290430FC004920080038
:0E022400073083120313FD00FD0B162908009E
:10023200831203172E088D0083168C130C1483125D
:060242000C08F0000800AA
:100248003629803083120317AE004929C030AE002A
:1002580049299430AE004929D430AE00492980306C
:10026800AE004929831203172E08013A03192529DC
:100278002E08023A03192A292E08033A03192D29B0
:100288002E08043A0319302933292F03F0002E08C9
:10029800F0077008AE007008B3004D206F10031708
:1002A800B1013108300784000008031964293108B6
:1002B800300784000008B200B7200317B10A552997
:0602C80003136F1408008F
:1002CE0083120313FB017308031D77080319BE295C
:1002DE0072087606FA007708F3077E30031C7B2936
:1002EE00F3020318C1297E29F302031CC4297208E4
:1002FE00F8007108FC007008FD00F817F6170310DF
:10030E00F201F101F0011830A0007D1C982974084B
:10031E00F00775080318750FF10776080318760FA6
:10032E00F207F20CF10CF00CF80CFC0CFD0C0310A7
:10033E00A00B8C29F21BA829F80DF00DF10DF20D72
:10034E00F3037B1B701CBA29F81FBA29F00A031994
:10035E00F10A0319F20A031DBA29F20CF10CF00C82
:10036E00F30A0319C129FA1FF2130030C62901300E
:10037E00A420C6290230CD20C6290430AB200000AF
:02038E00080065
:1003900083120313FB01FC01FA0173080319072AF6
:1003A000F2178E30F302F31BD8290319D8290A2A31
:1003B000F309F30A08307302031CED29F300F10D71
:1003C0007208F100F20108307302031CED29F10DEF
:1003D000F1017308031D0310F52973080319F529AA
:1003E0000310F20CF10CF30BF0297B1B711CFF299D
:1003F000031CFF29F10A0319F20AF21B162AFA1F3D
:10040000192AF209F109F10A0319F20A192AF2016B
:10041000F101192A7B14FB1F1C2AF201FA1F1C2A66
:10042000FF30F200F100FA0DF20C1C2A0130FC0042
:100430001E2A0030FC001E2AFF30FC00FC080319B5
:0E044000222AC0207108F0007208F1000800A6
:10044E00831203137408003A031D422A7508003AFA
:10045E00031D422A7608003A031D422A7708003A05
:10046E00031D422AFF30F000FF30F1007F30F20012
:10047E00FF30F300DD2A8312031377080319D12A04
:10048E0073080319D42A720876068039FA00F21717
:10049E00F617A0017208F8007108FC007008FD0044
:1004AE007408FD027508031C750FFC027608031C08
:1004BE00760FF802F801FC01FD01031C6D2A0310F2
:1004CE00F20CF10CF00CF80C0130A0007708F302DE
:1004DE00031C772A7E302007F3070318D72A7C2ABD
:1004EE007E302007F307031CDA2A1830FA07FD0DB9
:1004FE00FC0DF80DF00DF10DF20DA00D7408F002CB
:10050E007508031C750FF1027608031C760FF202B4
:10051E00760DA004201C952A7D14A02A7408F007DD
:10052E0075080318750FF10776080318760AF20797
:10053E007D10FA031F307A05031D7E2A7B1B7D1C5E
:10054E00C72A0310F00DF10DF20DA00D7408F00284
:10055E007508031C750FF1027608031C760FF20264
:10056E00760D20040139FD070318FC0A0319F80A59
:10057E00031DC72AF80CFC0CFD0CF30A0319D72A2D
:10058E00FA1FF8137808F2007C08F1007D08F000DD
:10059E000030DC2A0130E020DC2A0230A420DC2AE4
:0E05AE000430CD20DC2A0830AB20000008000D
:1005BC0083120313FB01FA01F9018030F800F10CEE
:1005CC00F00C031CF22A7408F90775080318750F50
:1005DC00FA070318FB0A0310F01FFA2A7408FA072B
:1005EC0075080318750FFB07FB0CFA0CF90CF80CCB
:1005FC00031CE52A7B08F3007A08F2007908F10065
:06060C007808F000080070
:10061200D9208A110A128000840AA40A0319A50AA1
:08062200F003031D092B080081
:10062A0083160313881208120810881008118811FB
:10063A0083128812081288110811881008103E20A7
:10064A003E203E208814081488163C2088123E203A
:10065A0088163C2088123E2088163C2088123E20AC
:10066A00081088163C2088123E2088163C208812E2
:10067A008810881588163C2088123E208811081494
:10068A0088163C208812081088163C2088123E20C2
:10069A0088163C208812081488163C2088123E20AE
:1006AA00081088163C208812881508158814081422
:0C06BA0088163C2088123E206F140800B7
:1006C600831203139F01C0309F0483161F179F17C1
:1006D600831203172E08F000F00D7010F00D701045
:1006E600F00D7010700803139F041F1412211F15BC
:1006F6001F1D7F2B00007B2B1F101E08F100F00131
:0C07060083161E08F0040030F104080007
:10071200831203137008F8007108F000F101F2016E
:10072200F301FB01FC019630F300FA017008F100BD
:0C0732007808F000F801F201E320080054
:10073E00831603178C1CA52B00009F2B83122E08EB
:10074E008D002F088C0083168C130C150B08F000EF
:10075E008B1355308D00AA308D008C14F01BB92BE5
:0A076E008B13BA2B8B170C11080037
:10077800C42683120317AC01AD018B178B150B161A
:100788000B1783160313051406148614061586150D
:10079800061686160617861707148710071187117D
:1007A80007128712071387130813881383128710F9
:1007B800071115230317AE01AF019F2320308312C1
:1007C800AE00AF019F2330308312AE00AF019F23EC
:1007D8008312031387150716871607170817881734
:1007E800861C652C0317AE01632370088312031758
:1007F800A2007108A30089230030F4000030F5003E
:100808002030F6008130F70067210030F400C03056
:10081800F5007F30F6008830F700272270080317AC
:100828009E0071089F007208A0007308A1000030A4
:10083800F4000030F5002030F6008130F700272260
:100848000030F4000030F5004830F6008530F7003D
:100858006721C82170080317A6007108A7000A308D
:10086800F4000030F500DE2270080317A8007108B4
:10087800A9000130AE000130AF005030B000242193
:1008880003172908003C031D4B2C2808FA3C0318C1
:10089800592C0230AE000130AF004030B0002421A6
:1008A8000C300317B3004D20652C02300317AE003F
:1008B8000130AF002530B00024210C300317B300FD
:1008C8004D20861D782C0317AE01192170080313DB
:1008D800A300A401A30A0319A40A0317AE01031372
:1008E80023080317AF009F2383120313061D8F2CC1
:1008F80020300317AE00192170080313A100A201CC
:10090800A10A0319A20A20300317AE000313210815
:100918000317AF009F230030831203133806031D0B
:10092800972C01303706031DC72C0130BE0000305C
:10093800BF0001300317B3004D2001300317AE008C
:100948000130AF003930B00024210C300317B30058
:100958004D200630FB001330FC00AD30FD00FD0BD0
:10096800B32CFC0BB32CFB0BB32C000000000130A4
:100978000317B3004D20B701B801ED01EE010130B6
:10098800BE000030BF0000306E06031DCD2C0130C4
:100998006D06031DCE2DBE01BF010618DE2C86187C
:1009A800DE2C861ADE2C061ADE2C0130BE00003042
:1009B800BF00E02CBE01BF01061C902D8619052D35
:1009C8000619052D01300317B3004D200130031718
:1009D800AE000130AF00BB30B00024210C3003174B
:1009E800B3004D200B30FB002630FC005D30FD00CD
:1009F800FD0BFC2CFC0BFC2CFB0BFC2C0000000062
:100A0800902D861D4C2D01300317B3004D20013069
:100A18000317AE000130AF00C430B000242102300B
:100A28000317AE000130AF001030B00024210C30A5
:100A38000317B3004D200317AC01AD0180302D061C
:100A4800F00080307002031D2B2D03302C02031898
:100A58003D2D03130715C330FC00CD30FD00FD0B01
:100A6800332DFC0B332D07110317AC0A0319AD0AFC
:100A7800222D0B30FB002630FC005D30FD00FD0B05
:100A8800432DFC0B432DFB0B432D00000000902D44
:100A980003170130B3004D2001300317AE000130B9
:100AA800AF00E130B000242102300317AE0001305E
:100AB800AF00D330B00024210C300317B3004D2011
:100AC8000317AC01AD0180302D06F00080307002B4
:100AD800031D702D03302C020318822D0313871475
:100AE800C330FC00CD30FD00FD0B782DFC0B782DBC
:100AF80087100317AC0A0319AD0A672D0B30FB00EA
:100B08002630FC005D30FD00FD0B882DFC0B882D88
:100B1800FB0B882D000000000313071CCE2D30307E
:100B28000317AE00192170080313E900EA01013028
:100B38000317B3004D2001300317AE000130AF009A
:100B48006330B00024210C300317B3004D20E90AAC
:100B58000319EA0A30300317AE00031369080317B4
:100B6800AF009F2383120313871787170630FB00F4
:100B78001330FC00AD30FD00FD0BC02DFC0BC02D6B
:100B8800FB0BC02D0000000001300317B3004D20FF
:100B98008713871300306206031DD42D01306106C8
:100BA800031DDA2DA301A401A101A20100306C06E6
:100BB800031DE02D01306B06031DF42D01300317D2
:100BC800B3004D2001300317AE000130AF0003130E
:100BD80069080317B00024210C300317B3004D2017
:100BE80000303F06031DFA2D01303E06031D102E6E
:100BF80001300317AE000130AF00AA30B000242145
:100C080002300317AE000130AF00A030B00024213D
:0C0C18000C300317B3004D20F42B112EFC
:100D8800213084004C3083120313F000173003170E
:100D9800A4000630A5000923A03084002430831263
:100DA800F0008F300317A4000630A50009236D302A
:100DB800840002308312F000C1300317A40006300B
:100DC800A5000923C43084002C308312F00063305E
:100DD8000317A4000630A5000923103083178400E8
:100DE8000E308312F000B3300317A4000630A500BC
:060DF8000923831308002B
:040C2E00003400345A
:040C32000034003456
:100C36002034533461347434693473346634613423
:100C46006934733461346E3474346534203420343A
:040C56002034003412
:040C5A00003400342E
:0A0C5E00533454344F345034003442
:040C6800013400341F
:100C6C0049346E3473346134743469347334663497
:100C7C0061346934733461346E34743465340034E3
:100C8C0050346F346934643473343A34203451340E
:100C9C00753461346C346934743465345F34503475
:020CAC00003412
:040CAE0000340034DA
:0C0CB200503441344E344E34453400348C
:040CBE0000340034CA
:040CC20000340034C6
:100CC6005134753461346C346934743465345F344A
:0E0CD600503426344634413420343A3400344D
:100CE400533461347434693473346634613469342C
:0C0CF400733461346E34743465340034A1
:100D00005134753461346C346934743465345F340F
:0E0D1000503426344634423420343A34003411
:100D1E0045346D34623461346C346C346134673410
:040D2E0065340034F4
:100D3200473465347334743469346F346E34203418
:100D42005134753461346C3469347434653420340C
:020D520000346B
:100D54002034203446346F3472346D346534203496
:020D6400003459
:100D660053346134743469347334663461346934A9
:0C0D7600733461346E347434653400341E
:040D82000034003405
:02400E007A3BFB
:00000001FF
